:020000040000fa
:080000000001040000000000f3
:020000040000fa
:040008000a020000e8
:020000040000fa
:04000c000a020000e4
:020000040000fa
:040010000a020000e0
:020000040000fa
:040014000a020000dc
:020000040000fa
:040018000a020000d8
:020000040000fa
:04001c000a020000d4
:020000040000fa
:040020000a020000d0
:020000040000fa
:040024000a020000cc
:020000040000fa
:04002800ea010000e9
:020000040000fa
:04002c000a020000c4
:020000040000fa
:040030000a020000c0
:020000040000fa
:040034000a020000bc
:020000040000fa
:040038000a020000b8
:020000040000fa
:04003c000a020000b4
:020000040000fa
:040040000a020000b0
:020000040000fa
:040044000a020000ac
:020000040000fa
:040048000a020000a8
:020000040000fa
:04004c000a020000a4
:020000040000fa
:040050000a020000a0
:020000040000fa
:040054000a0200009c
:020000040000fa
:040058000a02000098
:020000040000fa
:04005c000a02000094
:020000040000fa
:040060000a02000090
:020000040000fa
:040064000a0200008c
:020000040000fa
:040068000a02000088
:020000040000fa
:04006c000a02000084
:020000040000fa
:040070000a02000080
:020000040000fa
:040074000a0200007c
:020000040000fa
:040078000a02000078
:020000040000fa
:04007c000a02000074
:020000040000fa
:040080000a02000070
:020000040000fa
:040084000a0200006c
:020000040000fa
:04008800c8010000ab
:020000040000fa
:04008c000a02000064
:020000040000fa
:040090000a02000060
:020000040000fa
:040094000a0200005c
:020000040000fa
:040098000a02000058
:020000040000fa
:04009c000a02000054
:020000040000fa
:0400a0000a02000050
:020000040000fa
:0400a4000a0200004c
:020000040000fa
:0400a8000a02000048
:020000040000fa
:0400ac000a02000044
:020000040000fa
:0400b0000a02000040
:020000040000fa
:0400b4000a0200003c
:020000040000fa
:0400b8000a02000038
:020000040000fa
:0400bc000a02000034
:020000040000fa
:0400c0000a02000030
:020000040000fa
:0400c4000a0200002c
:020000040000fa
:0400c8000a02000028
:020000040000fa
:0400cc000a02000024
:020000040000fa
:0400d0000a02000020
:020000040000fa
:0400d4000a0200001c
:020000040000fa
:0400d8000a02000018
:020000040000fa
:040108000a020000e7
:020000040000fa
:04010c000a020000e3
:020000040000fa
:040110000a020000df
:020000040000fa
:040114000a020000db
:020000040000fa
:040118000a020000d7
:020000040000fa
:04011c000a020000d3
:020000040000fa
:040120000a020000cf
:020000040000fa
:040124000a020000cb
:020000040000fa
:040128000a020000c7
:020000040000fa
:04012c000a020000c3
:020000040000fa
:040130000a020000bf
:020000040000fa
:040134000a020000bb
:020000040000fa
:040138000a020000b7
:020000040000fa
:04013c000a020000b3
:020000040000fa
:040140000a020000af
:020000040000fa
:040144000a020000ab
:020000040000fa
:040148000a020000a7
:020000040000fa
:04014c000a020000a3
:020000040000fa
:040150000a0200009f
:020000040000fa
:040154000a0200009b
:020000040000fa
:040158000a02000097
:020000040000fa
:04015c000a02000093
:020000040000fa
:040160000a0200008f
:020000040000fa
:040164000a0200008b
:020000040000fa
:040168000a02000087
:020000040000fa
:04016c000a02000083
:020000040000fa
:040170000a0200007f
:020000040000fa
:040174000a0200007b
:020000040000fa
:040178000a02000077
:020000040000fa
:04017c000a02000073
:020000040000fa
:040180000a0200006f
:020000040000fa
:040184000a0200006b
:020000040000fa
:040188000a02000067
:020000040000fa
:04018c000a02000063
:020000040000fa
:040190000a0200005f
:020000040000fa
:040194000a0200005b
:020000040000fa
:040198000a02000057
:020000040000fa
:04019c000a02000053
:020000040000fa
:0401a0000a0200004f
:020000040000fa
:0401a4000a0200004b
:020000040000fa
:0401a8000a02000047
:020000040000fa
:0401ac000a02000043
:020000040000fa
:0401b0000a0200003f
:020000040000fa
:0401b4000a0200003b
:020000040000fa
:0401b8000a02000037
:020000040000fa
:0401bc000a02000033
:020000040000fa
:0401c0000a0200002f
:020000040000fa
:0401c4000a0200002b
:020000040000fa
:0401c8000a02000027
:020000040000fa
:0401cc000a02000023
:020000040000fa
:0401d0000a0200001f
:020000040000fa
:0401d4000a0200001b
:020000040000fa
:0401d8000a02000017
:020000040000fa
:100200002f8420000eff20000e0188000000000057
:10021000000020000000e000020032000001200089
:1002200020028800140007007c0007000000e000a6
:1002300003003a00603c200001002000020037006b
:100240000000200001002000810f7000010032003a
:1002500014000700000020000000e000020032004f
:1002600000000200000000002c020200000000005c
:100270000040da000000fe004440a900c001200058
:100280000000e0000300320000002000a001880010
:100290004440a800000006008a1f78008b1f7800e9
:1002a0000000060091018800800478000000eb0047
:1002b0001a003700e284440032a0b4009905ba0065
:1002c000e284440032a0b4009906ba00e2844400fb
:1002d00032a0b4000006eb00476fde00fd07b2005d
:1002e000636ce10003003a00ebff07000000eb0045
:1002f0000a003700606ce10004003a00005deb008a
:100300008b05e900fdff3e00040037006168e10055
:10031000010032000086eb000b00070019c7ba008d
:100320001905ba000e04e00003003a000a00e000dc
:10033000e0ff3a0000000600fe07b2009e018800c0
:100340008a047800f5ff3700395dba008b05e900b3
:100350000c003200295dba008b05e900080032006c
:100360000c00e00003003a00e284440032a0b40034
:10037000f5ff370019ddba008b05e900faff3a00f6
:100380008904e800e184440032a0b40000000600c3
:10039000809fbe000200fa00e0108000004f78004d
:1003a0001e00fb0080108800000000002104800077
:1003b00000402000008060000000e000fbff3200f1
:1003c0008540a9008700a9000080fa004f00be0008
:1003d000004006003600f800809fbe00829fbe00ed
:1003e000849fbe00869fbe000000fa000021280006
:1003f000890007008400a9000080fa004f03be00b6
:100400004f02be004f01be004f00be003600f90093
:10041000004006000040da000000fe000000050079
:020000040000fa
:10042000494e000054450000525200005550000053
:10043000434900004f4e0000204900004e54000088
:1004400030200000444500005445000043540000a3
:080450004144000041000000de
:020000040000fa
:100458000000fa000b000700330007003b0007000c
:10046800430007004c000700bb0007000080200085
:100478005d000700508020005b00070000000000be
:10048800feff37000000fa00d422ef000000000051
:10049800d622ef0000000000d222ef00c822ef00b1
:1004a80000000000ca22ef0000000000c622ef0092
:1004b800000000000080eb0040158800ce22ef000d
:1004c80000000000d022ef0000000000cc22ef0066
:1004d80000000000cda2a80000000000cdc2a800c6
:1004e80000000000e022ef0000000000e222ef0020
:1004f80000000000de22ef0000000000de82a800fd
:1005080000000000dea2a80000000000c6a2a800ab
:10051800d222a900c702a900d262a800d322a8004b
:100528000080fa00000006000000fa0000422000e7
:10053800601088000000280070108800b0002000bb
:10054800a01088000080fa00000006000000fa00f1
:1005580000022000b010880000002800c0108800a9
:10056800b0002000f01088000080fa0000000600ab
:100578000000fa008700a9008f00a8000de2a8007b
:100588000f42a8000000000017e2a8001942a800c6
:100598000080fa00000006000000fa00c902a90065
:1005a80000000000d422a90000000000d422a80006
:1005b80000000000d422a900000000000080fa001a
:1005c800000006000000fa00c362a900c562a90085
:1005d800c162a8008220ef008400a9008c00a80056
:1005e8000080fa00000006000200fa00000f780000
:1005f8008720a9001e007800200007005600070089
:1006080055000700540007000080fa0000000600ab
:100618000400fa00100798000000eb00000f7800b3
:100628000e0037001e0078009e00900000804000f9
:10063800104078000000fb008010880000000000d7
:100648002104800000402000008060000000e000dd
:10065800fbff32008540a9001e0fe8001e0078004d
:100668009e00900000804000104078000004e000e8
:10067800ecff3a000080fa00000006000400fa00cf
:10068800100798000000eb00000f78000e003700fc
:100698001e0078009e009000008040001040780006
:1006a8000000fb00d010880000000000310480002a
:1006b80000202000008060000000e000fbff320006
:1006c8008720a9001e0fe8001e0078009e009000f9
:1006d80000804000104078000004e000ecff3a0081
:1006e8000080fa0000000600640009000000000015
:1006f80000000600a403020000000000a40302009a
:1007080000000000a403020000000000a40302008f
:1007180000000000a403020000000000a40302007f
:1007280000000000000006000900080002000000a8
:100738007e03020000000000000000000000060028
:10074800801f7800c0cc20000000e900feff3a00be
:100758004f00780000000600801f7800811f780095
:10076800a10020000000eb000000e900feff3a00b5
:100778008100e900fbff3a00cf0078004f007800c5
:040788000000060067
:020000040000fa
:10078c0000080000400000000200000041540d0071
:10079c000a004100544530000d0a000041542b0062
:1007ac00434d4700463d31000d0a000041542b00db
:1007bc00434d4700533d22002b3532003535330075
:1007cc00303434003432330031220d000a0054002e
:1007dc00656d70006572610074757200610d0a00c0
:1007ec0000000000400800000200000000000000b3
:0407fc0000000000f9
:020000040000fa
:0200000401f009
:04000000e0b9000063
:020000040000fa
:0200000401f009
:04000400ff7f00007a
:020000040000fa
:0200000401f009
:04000800feff0000f7
:020000040000fa
:0200000401f009
:04001400ffff0000ea
:00000001FF
