:020000040000fa
:080000000001040000000000f3
:020000040000fa
:04000800c80100002b
:020000040000fa
:04000c00c801000027
:020000040000fa
:04001000c801000023
:020000040000fa
:04001400c80100001f
:020000040000fa
:04001800c80100001b
:020000040000fa
:04001c00c801000017
:020000040000fa
:04002000c801000013
:020000040000fa
:04002400c80100000f
:020000040000fa
:04002800c80100000b
:020000040000fa
:04002c00c801000007
:020000040000fa
:04003000c801000003
:020000040000fa
:04003400c8010000ff
:020000040000fa
:04003800c8010000fb
:020000040000fa
:04003c00c8010000f7
:020000040000fa
:04004000c8010000f3
:020000040000fa
:04004400c8010000ef
:020000040000fa
:04004800c8010000eb
:020000040000fa
:04004c00c8010000e7
:020000040000fa
:04005000c8010000e3
:020000040000fa
:04005400c8010000df
:020000040000fa
:04005800c8010000db
:020000040000fa
:04005c00c8010000d7
:020000040000fa
:04006000c8010000d3
:020000040000fa
:04006400c8010000cf
:020000040000fa
:04006800c8010000cb
:020000040000fa
:04006c00c8010000c7
:020000040000fa
:04007000c8010000c3
:020000040000fa
:04007400c8010000bf
:020000040000fa
:04007800c8010000bb
:020000040000fa
:04007c00c8010000b7
:020000040000fa
:04008000c8010000b3
:020000040000fa
:04008400c8010000af
:020000040000fa
:040088008e030000e3
:020000040000fa
:04008c00c8010000a7
:020000040000fa
:04009000c8010000a3
:020000040000fa
:04009400c80100009f
:020000040000fa
:04009800c80100009b
:020000040000fa
:04009c00c801000097
:020000040000fa
:0400a000c801000093
:020000040000fa
:0400a400c80100008f
:020000040000fa
:0400a800c80100008b
:020000040000fa
:0400ac00c801000087
:020000040000fa
:0400b000c801000083
:020000040000fa
:0400b400c80100007f
:020000040000fa
:0400b800c80100007b
:020000040000fa
:0400bc00c801000077
:020000040000fa
:0400c000c801000073
:020000040000fa
:0400c400c80100006f
:020000040000fa
:0400c800c80100006b
:020000040000fa
:0400cc00c801000067
:020000040000fa
:0400d000c801000063
:020000040000fa
:0400d400c80100005f
:020000040000fa
:0400d800c80100005b
:020000040000fa
:04010800c80100002a
:020000040000fa
:04010c00c801000026
:020000040000fa
:04011000c801000022
:020000040000fa
:04011400c80100001e
:020000040000fa
:04011800c80100001a
:020000040000fa
:04011c00c801000016
:020000040000fa
:04012000c801000012
:020000040000fa
:04012400c80100000e
:020000040000fa
:04012800c80100000a
:020000040000fa
:04012c00c801000006
:020000040000fa
:04013000c801000002
:020000040000fa
:04013400c8010000fe
:020000040000fa
:04013800c8010000fa
:020000040000fa
:04013c00c8010000f6
:020000040000fa
:04014000c8010000f2
:020000040000fa
:04014400c8010000ee
:020000040000fa
:04014800c8010000ea
:020000040000fa
:04014c00c8010000e6
:020000040000fa
:04015000c8010000e2
:020000040000fa
:04015400c8010000de
:020000040000fa
:04015800c8010000da
:020000040000fa
:04015c00c8010000d6
:020000040000fa
:04016000c8010000d2
:020000040000fa
:04016400c8010000ce
:020000040000fa
:04016800c8010000ca
:020000040000fa
:04016c00c8010000c6
:020000040000fa
:04017000c8010000c2
:020000040000fa
:04017400c8010000be
:020000040000fa
:04017800c8010000ba
:020000040000fa
:04017c00c8010000b6
:020000040000fa
:04018000c8010000b2
:020000040000fa
:04018400c8010000ae
:020000040000fa
:04018800c8010000aa
:020000040000fa
:04018c00c8010000a6
:020000040000fa
:04019000c8010000a2
:020000040000fa
:04019400c80100009e
:020000040000fa
:04019800c80100009a
:020000040000fa
:04019c00c801000096
:020000040000fa
:0401a000c801000092
:020000040000fa
:0401a400c80100008e
:020000040000fa
:0401a800c80100008a
:020000040000fa
:0401ac00c801000086
:020000040000fa
:0401b000c801000082
:020000040000fa
:0401b400c80100007e
:020000040000fa
:0401b800c80100007a
:020000040000fa
:0401bc00c801000076
:020000040000fa
:0401c000c801000072
:020000040000fa
:0401c400c80100006e
:020000040000fa
:0401c800c80100006a
:020000040000fa
:0401cc00c801000066
:020000040000fa
:0401d000c801000062
:020000040000fa
:0401d400c80100005e
:020000040000fa
:0401d800c80100005a
:020000040000fa
:100200000f8020000eff20000e018800000000007b
:10021000000020000000e000020032000001200089
:1002200020028800140007005b0007000000e000c7
:1002300003003a0000002000010020000200370007
:100240000000200001002000810f7000010032003a
:1002500014000700000020000000e000020032004f
:100260000000020000000000ec010200000000009d
:100270000040da000000fe004440a900e001200038
:100280000000e0000300320000002000a001880010
:100290004440a800000006008a1f78008b1f7800e9
:1002a0000000060091018800800478000000eb0047
:1002b0001a003700e284440032a0b4009905ba0065
:1002c000e284440032a0b4009906ba00e2844400fb
:1002d00032a0b4000006eb00476fde00fd07b2005d
:1002e000636ce10003003a00ebff07000000eb0045
:1002f0000a003700606ce10004003a00005deb008a
:100300008b05e900fdff3e00040037006168e10055
:10031000010032000086eb000b00070019c7ba008d
:100320001905ba000e04e00003003a000a00e000dc
:10033000e0ff3a0000000600fe07b2009e018800c0
:100340008a047800f5ff3700395dba008b05e900b3
:100350000c003200295dba008b05e900080032006c
:100360000c00e00003003a00e284440032a0b40034
:10037000f5ff370019ddba008b05e900faff3a00f6
:100380008904e800e184440032a0b40000000600c3
:0c0390000040da000000fe000000050044
:020000040000fa
:10039c0056000000320c0000000a000000000000b3
:1003ac00000000000000000010000000000a000027
:1003bc005600000026000000560000003601000028
:0c03cc000056000000340000010000009a
:020000040000fa
:1003d8000000fa00890007005f00070059000700c5
:1003e8000de2a8000f42a80017e2a8001942a800d1
:1003f8000200070000000000feff37001000fa00ae
:10040800e2004700e21d280003000900b258780006
:10041800e6004700221e280004000900b2587800b0
:10042800eb004700721e280004000900b25878004b
:10043800580007000e80e800410020002500070052
:10044800a9000700660047005100200021000700ae
:10045800a50007006b004700510020001d000700a1
:10046800a10007000000eb00000f78000300370030
:100478001e007800060007001e0fe8001e00780026
:10048800e30f5000faff34000080fa000000060075
:100498001200fa00000f9800e11c28000f00090064
:1004a800315f78000e01b1000e089000804078009e
:1004b800400020000008dd00004f980001012000e6
:1004c8000e007800030007003f0007000080fa00d4
:1004d800000006000600fa0010079800210798009f
:1004e8000000eb00000f7800100037008720a900fb
:1004f8001e0078009e0090000080400010407800a8
:100508000000fb00d0108800000000000100370048
:1005180000000000310480000020200000806000fe
:100528000000e000faff32001e0fe8002e009000e5
:100538009e007800808f5000ecff35000080fa00a4
:10054800000006000000fa008700a9008f00a8003c
:100558000080fa00000006000000fa0000422000b7
:10056800601088000000280070108800200020001b
:10057800a010880000022000b010880000002800a9
:10058800c010880020002000f01088000080fa00c9
:10059800000006000200fa000000eb00000f7800df
:1005a8000000eb00000f7800020037004e00070043
:1005b8001e0fe8001e007800e40f5000fbff340017
:1005c8000080fa00000006000200fa000000eb00bc
:1005d800000f78000000eb00000f780002003700e1
:1005e800410007001e0fe8001e007800e20f5000cf
:1005f800fbff34000080fa00000006000000fa004b
:10060800c822ef0000000000ca22ef00000000002e
:10061800d422ef0000000000d622ef000000000006
:10062800e022ef0000000000e222ef0000000000de
:10063800ce22ef0000000000d022ef0000000000f2
:10064800c702a90000000000cda2a9000000000018
:10065800cdc2a80000000000d222a90000000000be
:10066800dea2a80000000000de82a9000000000051
:100678000080eb00401588000080fa0000000600aa
:100688006c030200000000006c0302000000000080
:100698006c030200000000006c0302000000000070
:1006a8006c030200000000006c0302000000000060
:1006b800000006006c030200000000006c0302004a
:1006c800000000006c0302000000000000000600ab
:1006d800801f7800c0cc20000000e900feff3a002f
:1006e8004f00780000000600801f7800811f780006
:1006f800a10020000000eb000000e900feff3a0026
:100708008100e900fbff3a00cf0078004f00780035
:1007180000000600801f7800e01080000000000044
:1007280080108800000000008700a9000000000079
:080738004f00780000400600ac
:020000040000fa
:0200000401f009
:04000000e0b9000063
:020000040000fa
:0200000401f009
:04000400ff7f00007a
:020000040000fa
:0200000401f009
:04000800feff0000f7
:020000040000fa
:0200000401f009
:04001400ffff0000ea
:00000001FF
